:03000000020006F5
:03005F0002000399
:0300030002006C8C
:10006200007FC77E02DFFEDEFC22759000C283D2D3
:1000720080C2817F00BF08005014C284D2817E00FA
:10008200BE32005004000E80F7C2810F80E7D28298
:10009200E59004F5907C007D007E007F00C3EC9427
:1000A200FAED9400EE9400EF94005022C007C006CF
:1000B200C005C004120062D004D005D006D0070CDF
:1000C200BC00090DBD00050EBE00D20F80CF74FF2B
:0800D200B590BD75900080B8E7
:06003500E478FFF6D8FD9F
:100013007900E94400601B7A009000DE780175A046
:1000230000E493F2A308B8000205A0D9F4DAF2754C
:02003300A0FF2C
:10003B007800E84400600A790175A000E4F309D860
:10004B00FC7800E84400600C7900900001E4F0A318
:04005B00D8FCD9FAFA
:0D0006007581071200DAE582600302000335
:0400DA007582002209
:00000001FF
